{
  "contractName": "PatientControl",
  "abi": [
    {
      "anonymous": false,
      "inputs": [
        {
          "indexed": false,
          "internalType": "string",
          "name": "id",
          "type": "string"
        },
        {
          "indexed": false,
          "internalType": "uint256",
          "name": "timestamp",
          "type": "uint256"
        }
      ],
      "name": "eventCreatePatient",
      "type": "event"
    },
    {
      "inputs": [
        {
          "internalType": "string",
          "name": "_id",
          "type": "string"
        }
      ],
      "name": "setPatientId",
      "outputs": [],
      "stateMutability": "nonpayable",
      "type": "function"
    },
    {
      "inputs": [],
      "name": "getPatientId",
      "outputs": [
        {
          "internalType": "string",
          "name": "",
          "type": "string"
        }
      ],
      "stateMutability": "view",
      "type": "function",
      "constant": true
    }
  ],
  "bytecode": "0x608060405234801561001057600080fd5b506105dd806100206000396000f3fe608060405234801561001057600080fd5b5060043610610053576000357c010000000000000000000000000000000000000000000000000000000090048063205b97cb14610058578063e687987914610074575b600080fd5b610072600480360381019061006d919061028b565b610092565b005b61007c6100e6565b604051610089919061039c565b60405180910390f35b80600090805190602001906100a8929190610178565b507feb7b1f000a1557fc67313e85bc50965ceb4eb557030c4940145dde1cf01122fe6000426040516100db9291906103be565b60405180910390a150565b6060600080546100f5906104c1565b80601f0160208091040260200160405190810160405280929190818152602001828054610121906104c1565b801561016e5780601f106101435761010080835404028352916020019161016e565b820191906000526020600020905b81548152906001019060200180831161015157829003601f168201915b5050505050905090565b828054610184906104c1565b90600052602060002090601f0160209004810192826101a657600085556101ed565b82601f106101bf57805160ff19168380011785556101ed565b828001600101855582156101ed579182015b828111156101ec5782518255916020019190600101906101d1565b5b5090506101fa91906101fe565b5090565b5b808211156102175760008160009055506001016101ff565b5090565b600061022e61022984610413565b6103ee565b90508281526020810184848401111561024a57610249610587565b5b61025584828561047f565b509392505050565b600082601f83011261027257610271610582565b5b813561028284826020860161021b565b91505092915050565b6000602082840312156102a1576102a0610591565b5b600082013567ffffffffffffffff8111156102bf576102be61058c565b5b6102cb8482850161025d565b91505092915050565b60006102df82610459565b6102e98185610464565b93506102f981856020860161048e565b61030281610596565b840191505092915050565b6000815461031a816104c1565b6103248186610464565b9450600182166000811461033f576001811461035157610384565b60ff1983168652602086019350610384565b61035a85610444565b60005b8381101561037c5781548189015260018201915060208101905061035d565b808801955050505b50505092915050565b61039681610475565b82525050565b600060208201905081810360008301526103b681846102d4565b905092915050565b600060408201905081810360008301526103d8818561030d565b90506103e7602083018461038d565b9392505050565b60006103f8610409565b905061040482826104f3565b919050565b6000604051905090565b600067ffffffffffffffff82111561042e5761042d610553565b5b61043782610596565b9050602081019050919050565b60008190508160005260206000209050919050565b600081519050919050565b600082825260208201905092915050565b6000819050919050565b82818337600083830152505050565b60005b838110156104ac578082015181840152602081019050610491565b838111156104bb576000848401525b50505050565b600060028204905060018216806104d957607f821691505b602082108114156104ed576104ec610524565b5b50919050565b6104fc82610596565b810181811067ffffffffffffffff8211171561051b5761051a610553565b5b80604052505050565b7f4e487b7100000000000000000000000000000000000000000000000000000000600052602260045260246000fd5b7f4e487b7100000000000000000000000000000000000000000000000000000000600052604160045260246000fd5b600080fd5b600080fd5b600080fd5b600080fd5b6000601f19601f830116905091905056fea26469706673582212201ea7113e36d3af9f850f878496018ea2148f9d76abb3c4446be0a161ae21991964736f6c63430008050033",
  "immutableReferences": {},
  "source": "// SPDX-License-Identifier: MIT\r\npragma solidity ^0.8.5;\r\n\r\ncontract PatientControl{\r\n    \r\n    string private id;\r\n    \r\n    event eventCreatePatient(\r\n        string id,\r\n        uint256 timestamp\r\n    );\r\n    \r\n    function setPatientId(string memory _id)public{\r\n        id=_id;\r\n        emit eventCreatePatient(id, block.timestamp);\r\n    }\r\n    \r\n    function getPatientId()public view returns(string memory){\r\n        return id;\r\n    }\r\n    \r\n}",
  "sourcePath": "C:/Users/Kosala/WHZHealth/contracts/PatientControl.sol",
  "compiler": {
    "name": "solc",
    "version": "0.8.5+commit.a4f2e591.Emscripten.clang"
  },
  "schemaVersion": "3.3.4",
  "updatedAt": "2021-06-22T11:52:08.486Z",
  "networkType": "ethereum",
  "devdoc": {
    "kind": "dev",
    "methods": {},
    "version": 1
  },
  "userdoc": {
    "kind": "user",
    "methods": {},
    "version": 1
  }
}