{
  "contractName": "PatientControl",
  "abi": [
    {
      "anonymous": false,
      "inputs": [
        {
          "indexed": false,
          "internalType": "string",
          "name": "name",
          "type": "string"
        },
        {
          "indexed": false,
          "internalType": "string",
          "name": "email",
          "type": "string"
        },
        {
          "indexed": false,
          "internalType": "string",
          "name": "mobile",
          "type": "string"
        },
        {
          "indexed": false,
          "internalType": "uint256",
          "name": "timestamp",
          "type": "uint256"
        }
      ],
      "name": "eventCreatePatient",
      "type": "event"
    },
    {
      "inputs": [
        {
          "internalType": "string",
          "name": "_name",
          "type": "string"
        },
        {
          "internalType": "string",
          "name": "_email",
          "type": "string"
        },
        {
          "internalType": "string",
          "name": "_mobile",
          "type": "string"
        }
      ],
      "name": "writePatientDetails",
      "outputs": [],
      "stateMutability": "nonpayable",
      "type": "function"
    },
    {
      "inputs": [
        {
          "internalType": "address",
          "name": "_address",
          "type": "address"
        },
        {
          "internalType": "string",
          "name": "_hash",
          "type": "string"
        }
      ],
      "name": "writePatientInfo",
      "outputs": [],
      "stateMutability": "nonpayable",
      "type": "function"
    },
    {
      "inputs": [
        {
          "internalType": "address",
          "name": "_address",
          "type": "address"
        }
      ],
      "name": "getPatientInfo",
      "outputs": [
        {
          "internalType": "string",
          "name": "",
          "type": "string"
        }
      ],
      "stateMutability": "view",
      "type": "function",
      "constant": true
    },
    {
      "inputs": [],
      "name": "getPatientName",
      "outputs": [
        {
          "internalType": "string",
          "name": "",
          "type": "string"
        }
      ],
      "stateMutability": "view",
      "type": "function",
      "constant": true
    },
    {
      "inputs": [],
      "name": "getPatientEmail",
      "outputs": [
        {
          "internalType": "string",
          "name": "",
          "type": "string"
        }
      ],
      "stateMutability": "view",
      "type": "function",
      "constant": true
    },
    {
      "inputs": [],
      "name": "getPatientMobile",
      "outputs": [
        {
          "internalType": "string",
          "name": "",
          "type": "string"
        }
      ],
      "stateMutability": "view",
      "type": "function",
      "constant": true
    }
  ],
  "bytecode": "0x608060405234801561001057600080fd5b50610a83806100206000396000f3fe608060405234801561001057600080fd5b506004361061007f576000357c0100000000000000000000000000000000000000000000000000000000900480631e72cf70146100845780634b426178146100a05780634eaefada146100d057806363d866a6146100ee578063870be7dd1461010c578063a5d7f5641461012a575b600080fd5b61009e60048036038101906100999190610660565b610146565b005b6100ba60048036038101906100b591906105d7565b6101d0565b6040516100c791906107cf565b60405180910390f35b6100d86102a1565b6040516100e591906107cf565b60405180910390f35b6100f6610333565b60405161010391906107cf565b60405180910390f35b6101146103c5565b60405161012191906107cf565b60405180910390f35b610144600480360381019061013f9190610604565b610457565b005b826000908051906020019061015c9291906104af565b5081600190805190602001906101739291906104af565b50806002908051906020019061018a9291906104af565b507f52c41203807e278457cd43e32d5fa189c2cf1b1a8f2d0b6a24bd5e757c707740600060016002426040516101c394939291906107f1565b60405180910390a1505050565b6060600360008373ffffffffffffffffffffffffffffffffffffffff1673ffffffffffffffffffffffffffffffffffffffff168152602001908152602001600020805461021c90610950565b80601f016020809104026020016040519081016040528092919081815260200182805461024890610950565b80156102955780601f1061026a57610100808354040283529160200191610295565b820191906000526020600020905b81548152906001019060200180831161027857829003601f168201915b50505050509050919050565b6060600180546102b090610950565b80601f01602080910402602001604051908101604052809291908181526020018280546102dc90610950565b80156103295780601f106102fe57610100808354040283529160200191610329565b820191906000526020600020905b81548152906001019060200180831161030c57829003601f168201915b5050505050905090565b60606002805461034290610950565b80601f016020809104026020016040519081016040528092919081815260200182805461036e90610950565b80156103bb5780601f10610390576101008083540402835291602001916103bb565b820191906000526020600020905b81548152906001019060200180831161039e57829003601f168201915b5050505050905090565b6060600080546103d490610950565b80601f016020809104026020016040519081016040528092919081815260200182805461040090610950565b801561044d5780601f106104225761010080835404028352916020019161044d565b820191906000526020600020905b81548152906001019060200180831161043057829003601f168201915b5050505050905090565b80600360008473ffffffffffffffffffffffffffffffffffffffff1673ffffffffffffffffffffffffffffffffffffffff16815260200190815260200160002090805190602001906104aa9291906104af565b505050565b8280546104bb90610950565b90600052602060002090601f0160209004810192826104dd5760008555610524565b82601f106104f657805160ff1916838001178555610524565b82800160010185558215610524579182015b82811115610523578251825591602001919060010190610508565b5b5090506105319190610535565b5090565b5b8082111561054e576000816000905550600101610536565b5090565b600061056561056084610870565b61084b565b90508281526020810184848401111561058157610580610a16565b5b61058c84828561090e565b509392505050565b6000813590506105a381610a36565b92915050565b600082601f8301126105be576105bd610a11565b5b81356105ce848260208601610552565b91505092915050565b6000602082840312156105ed576105ec610a20565b5b60006105fb84828501610594565b91505092915050565b6000806040838503121561061b5761061a610a20565b5b600061062985828601610594565b925050602083013567ffffffffffffffff81111561064a57610649610a1b565b5b610656858286016105a9565b9150509250929050565b60008060006060848603121561067957610678610a20565b5b600084013567ffffffffffffffff81111561069757610696610a1b565b5b6106a3868287016105a9565b935050602084013567ffffffffffffffff8111156106c4576106c3610a1b565b5b6106d0868287016105a9565b925050604084013567ffffffffffffffff8111156106f1576106f0610a1b565b5b6106fd868287016105a9565b9150509250925092565b6000610712826108b6565b61071c81856108c1565b935061072c81856020860161091d565b61073581610a25565b840191505092915050565b6000815461074d81610950565b61075781866108c1565b945060018216600081146107725760018114610784576107b7565b60ff19831686526020860193506107b7565b61078d856108a1565b60005b838110156107af57815481890152600182019150602081019050610790565b808801955050505b50505092915050565b6107c981610904565b82525050565b600060208201905081810360008301526107e98184610707565b905092915050565b6000608082019050818103600083015261080b8187610740565b9050818103602083015261081f8186610740565b905081810360408301526108338185610740565b905061084260608301846107c0565b95945050505050565b6000610855610866565b90506108618282610982565b919050565b6000604051905090565b600067ffffffffffffffff82111561088b5761088a6109e2565b5b61089482610a25565b9050602081019050919050565b60008190508160005260206000209050919050565b600081519050919050565b600082825260208201905092915050565b60006108dd826108e4565b9050919050565b600073ffffffffffffffffffffffffffffffffffffffff82169050919050565b6000819050919050565b82818337600083830152505050565b60005b8381101561093b578082015181840152602081019050610920565b8381111561094a576000848401525b50505050565b6000600282049050600182168061096857607f821691505b6020821081141561097c5761097b6109b3565b5b50919050565b61098b82610a25565b810181811067ffffffffffffffff821117156109aa576109a96109e2565b5b80604052505050565b7f4e487b7100000000000000000000000000000000000000000000000000000000600052602260045260246000fd5b7f4e487b7100000000000000000000000000000000000000000000000000000000600052604160045260246000fd5b600080fd5b600080fd5b600080fd5b600080fd5b6000601f19601f8301169050919050565b610a3f816108d2565b8114610a4a57600080fd5b5056fea26469706673582212202837e4b5cbc0417b5be04b3faae5f6fb61c8c030b91f2bdfbfc8a8c43c1ca5bd64736f6c63430008050033",
  "immutableReferences": {},
  "source": "// SPDX-License-Identifier: MIT\r\npragma solidity ^0.8.5;\r\n\r\ncontract PatientControl{\r\n    \r\n    string private name;\r\n    string private email;\r\n    string private mobile;\r\n\r\n    mapping(address=>string) private users;\r\n    \r\n    event eventCreatePatient(\r\n        string name,\r\n        string email,\r\n        string mobile,\r\n        uint256 timestamp\r\n    );\r\n    \r\n    function writePatientDetails(string memory _name, string memory _email, string memory _mobile)public{\r\n        name=_name;\r\n        email=_email;\r\n        mobile=_mobile;\r\n        emit eventCreatePatient(name,email,mobile,block.timestamp);\r\n    }\r\n\r\n    function writePatientInfo(address _address, string memory _hash)public{\r\n        users[_address]=_hash;\r\n    }\r\n\r\n    function getPatientInfo(address _address)public view returns(string memory){\r\n        return users[_address];\r\n    }\r\n\r\n    \r\n    function getPatientName()public view returns(string memory){\r\n        return name;\r\n    }\r\n    \r\n    function getPatientEmail()public view returns(string memory){\r\n        return email;\r\n    }\r\n\r\n    function getPatientMobile()public view returns(string memory){\r\n        return mobile;\r\n    }\r\n}",
  "sourcePath": "C:/Users/Kosala/WHZHealth/contracts/PatientControl.sol",
  "compiler": {
    "name": "solc",
    "version": "0.8.5+commit.a4f2e591.Emscripten.clang"
  },
  "schemaVersion": "3.3.4",
  "updatedAt": "2021-07-12T14:19:37.713Z",
  "networkType": "ethereum",
  "devdoc": {
    "kind": "dev",
    "methods": {},
    "version": 1
  },
  "userdoc": {
    "kind": "user",
    "methods": {},
    "version": 1
  }
}