{
  "contractName": "PatientControl",
  "abi": [
    {
      "anonymous": false,
      "inputs": [
        {
          "indexed": false,
          "internalType": "string",
          "name": "dname",
          "type": "string"
        },
        {
          "indexed": false,
          "internalType": "string",
          "name": "demail",
          "type": "string"
        },
        {
          "indexed": false,
          "internalType": "string",
          "name": "dmobile",
          "type": "string"
        },
        {
          "indexed": false,
          "internalType": "string",
          "name": "dhospitalname",
          "type": "string"
        },
        {
          "indexed": false,
          "internalType": "uint256",
          "name": "timestamp",
          "type": "uint256"
        }
      ],
      "name": "eventCreateDoctor",
      "type": "event"
    },
    {
      "anonymous": false,
      "inputs": [
        {
          "indexed": false,
          "internalType": "string",
          "name": "name",
          "type": "string"
        },
        {
          "indexed": false,
          "internalType": "string",
          "name": "email",
          "type": "string"
        },
        {
          "indexed": false,
          "internalType": "string",
          "name": "mobile",
          "type": "string"
        },
        {
          "indexed": false,
          "internalType": "uint256",
          "name": "timestamp",
          "type": "uint256"
        }
      ],
      "name": "eventCreatePatient",
      "type": "event"
    },
    {
      "inputs": [
        {
          "internalType": "string",
          "name": "_name",
          "type": "string"
        },
        {
          "internalType": "string",
          "name": "_email",
          "type": "string"
        },
        {
          "internalType": "string",
          "name": "_mobile",
          "type": "string"
        }
      ],
      "name": "writePatientDetails",
      "outputs": [],
      "stateMutability": "nonpayable",
      "type": "function"
    },
    {
      "inputs": [
        {
          "internalType": "address",
          "name": "_address",
          "type": "address"
        },
        {
          "internalType": "string",
          "name": "_hash",
          "type": "string"
        }
      ],
      "name": "writePatientInfo",
      "outputs": [],
      "stateMutability": "nonpayable",
      "type": "function"
    },
    {
      "inputs": [
        {
          "internalType": "address",
          "name": "_address",
          "type": "address"
        }
      ],
      "name": "getPatientInfo",
      "outputs": [
        {
          "internalType": "string",
          "name": "",
          "type": "string"
        }
      ],
      "stateMutability": "view",
      "type": "function",
      "constant": true
    },
    {
      "inputs": [],
      "name": "getPatientName",
      "outputs": [
        {
          "internalType": "string",
          "name": "",
          "type": "string"
        }
      ],
      "stateMutability": "view",
      "type": "function",
      "constant": true
    },
    {
      "inputs": [],
      "name": "getPatientEmail",
      "outputs": [
        {
          "internalType": "string",
          "name": "",
          "type": "string"
        }
      ],
      "stateMutability": "view",
      "type": "function",
      "constant": true
    },
    {
      "inputs": [],
      "name": "getPatientMobile",
      "outputs": [
        {
          "internalType": "string",
          "name": "",
          "type": "string"
        }
      ],
      "stateMutability": "view",
      "type": "function",
      "constant": true
    },
    {
      "inputs": [
        {
          "internalType": "string",
          "name": "_dname",
          "type": "string"
        },
        {
          "internalType": "string",
          "name": "_demail",
          "type": "string"
        },
        {
          "internalType": "string",
          "name": "_dmobile",
          "type": "string"
        },
        {
          "internalType": "string",
          "name": "_dhospitalname",
          "type": "string"
        }
      ],
      "name": "writeDoctorDetails",
      "outputs": [],
      "stateMutability": "nonpayable",
      "type": "function"
    },
    {
      "inputs": [
        {
          "internalType": "address",
          "name": "_address",
          "type": "address"
        },
        {
          "internalType": "string",
          "name": "_hash",
          "type": "string"
        }
      ],
      "name": "writeDoctorInfo",
      "outputs": [],
      "stateMutability": "nonpayable",
      "type": "function"
    },
    {
      "inputs": [
        {
          "internalType": "address",
          "name": "_address",
          "type": "address"
        }
      ],
      "name": "getDoctorInfo",
      "outputs": [
        {
          "internalType": "string",
          "name": "",
          "type": "string"
        }
      ],
      "stateMutability": "view",
      "type": "function",
      "constant": true
    },
    {
      "inputs": [],
      "name": "getDoctorName",
      "outputs": [
        {
          "internalType": "string",
          "name": "",
          "type": "string"
        }
      ],
      "stateMutability": "view",
      "type": "function",
      "constant": true
    },
    {
      "inputs": [],
      "name": "getDoctorEmail",
      "outputs": [
        {
          "internalType": "string",
          "name": "",
          "type": "string"
        }
      ],
      "stateMutability": "view",
      "type": "function",
      "constant": true
    },
    {
      "inputs": [],
      "name": "getDoctorMobile",
      "outputs": [
        {
          "internalType": "string",
          "name": "",
          "type": "string"
        }
      ],
      "stateMutability": "view",
      "type": "function",
      "constant": true
    },
    {
      "inputs": [],
      "name": "getDoctorHospitalName",
      "outputs": [
        {
          "internalType": "string",
          "name": "",
          "type": "string"
        }
      ],
      "stateMutability": "view",
      "type": "function",
      "constant": true
    }
  ],
  "bytecode": "0x608060405234801561001057600080fd5b5061112c806100206000396000f3fe608060405234801561001057600080fd5b50600436106100ec576000357c01000000000000000000000000000000000000000000000000000000009004806363d866a6116100a9578063870be7dd11610083578063870be7dd1461021f5780638efff0831461023d57806397df94e21461025b578063a5d7f56414610277576100ec565b806363d866a6146101b35780636f12fc35146101d15780638264c7c814610201576100ec565b80631e72cf70146100f15780632796c8f01461010d5780634b4261781461012b5780634eaefada1461015b5780635b6e1bc51461017957806360f5c1e314610195575b600080fd5b61010b60048036038101906101069190610bc3565b610293565b005b61011561031d565b6040516101229190610e09565b60405180910390f35b61014560048036038101906101409190610b3a565b6103af565b6040516101529190610e09565b60405180910390f35b610163610480565b6040516101709190610e09565b60405180910390f35b610193600480360381019061018e9190610b67565b610512565b005b61019d61056a565b6040516101aa9190610e09565b60405180910390f35b6101bb6105fc565b6040516101c89190610e09565b60405180910390f35b6101eb60048036038101906101e69190610b3a565b61068e565b6040516101f89190610e09565b60405180910390f35b61020961075f565b6040516102169190610e09565b60405180910390f35b6102276107f1565b6040516102349190610e09565b60405180910390f35b610245610883565b6040516102529190610e09565b60405180910390f35b61027560048036038101906102709190610c6a565b610915565b005b610291600480360381019061028c9190610b67565b6109ba565b005b82600090805190602001906102a9929190610a12565b5081600190805190602001906102c0929190610a12565b5080600290805190602001906102d7929190610a12565b507f52c41203807e278457cd43e32d5fa189c2cf1b1a8f2d0b6a24bd5e757c707740600060016002426040516103109493929190610e9a565b60405180910390a1505050565b60606004805461032c90610ff9565b80601f016020809104026020016040519081016040528092919081815260200182805461035890610ff9565b80156103a55780601f1061037a576101008083540402835291602001916103a5565b820191906000526020600020905b81548152906001019060200180831161038857829003601f168201915b5050505050905090565b6060600360008373ffffffffffffffffffffffffffffffffffffffff1673ffffffffffffffffffffffffffffffffffffffff16815260200190815260200160002080546103fb90610ff9565b80601f016020809104026020016040519081016040528092919081815260200182805461042790610ff9565b80156104745780601f1061044957610100808354040283529160200191610474565b820191906000526020600020905b81548152906001019060200180831161045757829003601f168201915b50505050509050919050565b60606001805461048f90610ff9565b80601f01602080910402602001604051908101604052809291908181526020018280546104bb90610ff9565b80156105085780601f106104dd57610100808354040283529160200191610508565b820191906000526020600020905b8154815290600101906020018083116104eb57829003601f168201915b5050505050905090565b80600860008473ffffffffffffffffffffffffffffffffffffffff1673ffffffffffffffffffffffffffffffffffffffff1681526020019081526020016000209080519060200190610565929190610a12565b505050565b60606006805461057990610ff9565b80601f01602080910402602001604051908101604052809291908181526020018280546105a590610ff9565b80156105f25780601f106105c7576101008083540402835291602001916105f2565b820191906000526020600020905b8154815290600101906020018083116105d557829003601f168201915b5050505050905090565b60606002805461060b90610ff9565b80601f016020809104026020016040519081016040528092919081815260200182805461063790610ff9565b80156106845780601f1061065957610100808354040283529160200191610684565b820191906000526020600020905b81548152906001019060200180831161066757829003601f168201915b5050505050905090565b6060600860008373ffffffffffffffffffffffffffffffffffffffff1673ffffffffffffffffffffffffffffffffffffffff16815260200190815260200160002080546106da90610ff9565b80601f016020809104026020016040519081016040528092919081815260200182805461070690610ff9565b80156107535780601f1061072857610100808354040283529160200191610753565b820191906000526020600020905b81548152906001019060200180831161073657829003601f168201915b50505050509050919050565b60606007805461076e90610ff9565b80601f016020809104026020016040519081016040528092919081815260200182805461079a90610ff9565b80156107e75780601f106107bc576101008083540402835291602001916107e7565b820191906000526020600020905b8154815290600101906020018083116107ca57829003601f168201915b5050505050905090565b60606000805461080090610ff9565b80601f016020809104026020016040519081016040528092919081815260200182805461082c90610ff9565b80156108795780601f1061084e57610100808354040283529160200191610879565b820191906000526020600020905b81548152906001019060200180831161085c57829003601f168201915b5050505050905090565b60606005805461089290610ff9565b80601f01602080910402602001604051908101604052809291908181526020018280546108be90610ff9565b801561090b5780601f106108e05761010080835404028352916020019161090b565b820191906000526020600020905b8154815290600101906020018083116108ee57829003601f168201915b5050505050905090565b836004908051906020019061092b929190610a12565b508260059080519060200190610942929190610a12565b508160069080519060200190610959929190610a12565b508060079080519060200190610970929190610a12565b507f16ec0aed8987d7ac3356ce3c907e1ac98c76b55fc951cf3741028334023d16b56004600560066007426040516109ac959493929190610e2b565b60405180910390a150505050565b80600360008473ffffffffffffffffffffffffffffffffffffffff1673ffffffffffffffffffffffffffffffffffffffff1681526020019081526020016000209080519060200190610a0d929190610a12565b505050565b828054610a1e90610ff9565b90600052602060002090601f016020900481019282610a405760008555610a87565b82601f10610a5957805160ff1916838001178555610a87565b82800160010185558215610a87579182015b82811115610a86578251825591602001919060010190610a6b565b5b509050610a949190610a98565b5090565b5b80821115610ab1576000816000905550600101610a99565b5090565b6000610ac8610ac384610f19565b610ef4565b905082815260208101848484011115610ae457610ae36110bf565b5b610aef848285610fb7565b509392505050565b600081359050610b06816110df565b92915050565b600082601f830112610b2157610b206110ba565b5b8135610b31848260208601610ab5565b91505092915050565b600060208284031215610b5057610b4f6110c9565b5b6000610b5e84828501610af7565b91505092915050565b60008060408385031215610b7e57610b7d6110c9565b5b6000610b8c85828601610af7565b925050602083013567ffffffffffffffff811115610bad57610bac6110c4565b5b610bb985828601610b0c565b9150509250929050565b600080600060608486031215610bdc57610bdb6110c9565b5b600084013567ffffffffffffffff811115610bfa57610bf96110c4565b5b610c0686828701610b0c565b935050602084013567ffffffffffffffff811115610c2757610c266110c4565b5b610c3386828701610b0c565b925050604084013567ffffffffffffffff811115610c5457610c536110c4565b5b610c6086828701610b0c565b9150509250925092565b60008060008060808587031215610c8457610c836110c9565b5b600085013567ffffffffffffffff811115610ca257610ca16110c4565b5b610cae87828801610b0c565b945050602085013567ffffffffffffffff811115610ccf57610cce6110c4565b5b610cdb87828801610b0c565b935050604085013567ffffffffffffffff811115610cfc57610cfb6110c4565b5b610d0887828801610b0c565b925050606085013567ffffffffffffffff811115610d2957610d286110c4565b5b610d3587828801610b0c565b91505092959194509250565b6000610d4c82610f5f565b610d568185610f6a565b9350610d66818560208601610fc6565b610d6f816110ce565b840191505092915050565b60008154610d8781610ff9565b610d918186610f6a565b94506001821660008114610dac5760018114610dbe57610df1565b60ff1983168652602086019350610df1565b610dc785610f4a565b60005b83811015610de957815481890152600182019150602081019050610dca565b808801955050505b50505092915050565b610e0381610fad565b82525050565b60006020820190508181036000830152610e238184610d41565b905092915050565b600060a0820190508181036000830152610e458188610d7a565b90508181036020830152610e598187610d7a565b90508181036040830152610e6d8186610d7a565b90508181036060830152610e818185610d7a565b9050610e906080830184610dfa565b9695505050505050565b60006080820190508181036000830152610eb48187610d7a565b90508181036020830152610ec88186610d7a565b90508181036040830152610edc8185610d7a565b9050610eeb6060830184610dfa565b95945050505050565b6000610efe610f0f565b9050610f0a828261102b565b919050565b6000604051905090565b600067ffffffffffffffff821115610f3457610f3361108b565b5b610f3d826110ce565b9050602081019050919050565b60008190508160005260206000209050919050565b600081519050919050565b600082825260208201905092915050565b6000610f8682610f8d565b9050919050565b600073ffffffffffffffffffffffffffffffffffffffff82169050919050565b6000819050919050565b82818337600083830152505050565b60005b83811015610fe4578082015181840152602081019050610fc9565b83811115610ff3576000848401525b50505050565b6000600282049050600182168061101157607f821691505b602082108114156110255761102461105c565b5b50919050565b611034826110ce565b810181811067ffffffffffffffff821117156110535761105261108b565b5b80604052505050565b7f4e487b7100000000000000000000000000000000000000000000000000000000600052602260045260246000fd5b7f4e487b7100000000000000000000000000000000000000000000000000000000600052604160045260246000fd5b600080fd5b600080fd5b600080fd5b600080fd5b6000601f19601f8301169050919050565b6110e881610f7b565b81146110f357600080fd5b5056fea2646970667358221220e6a9f4af04e4632419d17338040006ef740d16e8364bb281f014e2c32bbaf20164736f6c63430008050033",
  "immutableReferences": {},
  "source": "// SPDX-License-Identifier: MIT\npragma solidity ^0.8.5;\n\ncontract PatientControl{\n    \n    string private name;\n    string private email;\n    string private mobile;\n\n    mapping(address=>string) private users;\n\n\n    string private dname;\n    string private demail;\n    string private dmobile;\n    string private dhospitalname;\n\n    mapping(address=>string) private doctors;\n\n    \n    event eventCreatePatient(\n        string name,\n        string email,\n        string mobile,\n        uint256 timestamp\n    );\n\n    event eventCreateDoctor(\n        string dname,\n        string demail,\n        string dmobile,\n        string dhospitalname,\n        uint256 timestamp\n    );\n\n    \n    function writePatientDetails(string memory _name, string memory _email, string memory _mobile)public{\n        name=_name;\n        email=_email;\n        mobile=_mobile;\n        emit eventCreatePatient(name,email,mobile,block.timestamp);\n    }\n\n    function writePatientInfo(address _address, string memory _hash)public{\n        users[_address]=_hash;\n    }\n\n    function getPatientInfo(address _address)public view returns(string memory){\n        return users[_address];\n    }\n\n    \n    function getPatientName()public view returns(string memory){\n        return name;\n    }\n    \n    function getPatientEmail()public view returns(string memory){\n        return email;\n    }\n\n    function getPatientMobile()public view returns(string memory){\n        return mobile;\n    }\n\n\n   function writeDoctorDetails(string memory _dname, string memory _demail, string memory _dmobile, string memory _dhospitalname)public{\n        dname=_dname;\n        demail=_demail;\n        dmobile=_dmobile;\n        dhospitalname = _dhospitalname;\n        emit eventCreateDoctor(dname,demail,dmobile,dhospitalname,block.timestamp);\n    }\n\n    function writeDoctorInfo(address _address, string memory _hash)public{\n        doctors[_address]=_hash;\n    }\n\n    function getDoctorInfo(address _address)public view returns(string memory){\n        return doctors[_address];\n    }\n\n\n    function getDoctorName()public view returns(string memory){\n        return dname;\n    }\n\n    function getDoctorEmail()public view returns(string memory){\n        return demail;\n    }\n\n    function getDoctorMobile()public view returns(string memory){\n        return dmobile;\n    }\n   \n     function getDoctorHospitalName()public view returns(string memory){\n        return dhospitalname;\n    }\n\n\n}\n",
  "sourcePath": "/home/student/PrototypeV1/contracts/PatientControl.sol",
  "compiler": {
    "name": "solc",
    "version": "0.8.5+commit.a4f2e591.Emscripten.clang"
  },
  "schemaVersion": "3.4.1",
  "updatedAt": "2021-07-16T19:30:30.062Z",
  "networkType": "ethereum",
  "devdoc": {
    "kind": "dev",
    "methods": {},
    "version": 1
  },
  "userdoc": {
    "kind": "user",
    "methods": {},
    "version": 1
  }
}